S01700004763634170706C69636174696F6E322E737265635A
S113000045C0000061C000005EC00000F1C00000F7
S11300105AC0000058C0000056C0000054C0000080
S113002052C0000050C000004EC000004CC0000090
S11300304AC0000048C0000046C0000072C0000072
S113004042C0000040C000003EC000003CC00000B0
S11300503AC0000038C0000036C0000034C00000C0
S113006032C0000030C000002EC000002CC00000D0
S11300702AC0000028C0000026C0000024C00000E0
S113008022C0000020C000001EC0000011241FBEBA
S1130090CFEFD0E1DEBFCDBF11E0A0E0B1E0EEE2F2
S11300A0FBE000E00BBF02C007900D92A033B10744
S11300B0D9F721E0A0E3B1E001C01D92AC33B2074F
S11300C0E1F709D132C59CCF1F920F920FB60F9260
S11300D011240BB60F922F933F934F935F936F931B
S11300E07F938F939F93AF93BF93EF93FF9360E0BE
S11300F071E080913A0190913B017ED1FF91EF91A3
S1130100BF91AF919F918F917F916F915F914F912B
S11301103F912F910F900BBE0F900FBE0F901F9029
S113012018951F920F920FB60F9211242F933F939D
S11301304F935F936F937F938F939F93AF93EF93BB
S113014020913101309132014091330150913401B9
S11301506091350170913601809137019091380199
S1130160A1E011D220933101309332014093330145
S113017050933401609335017093360180933701B5
S1130180909338012332344F4105510561057105BF
S113019081059105F1F0E8F01092310110923201DD
S11301A010923301109234011092350110923601ED
S11301B0109237011092380180913001882329F080
S11301C08FEF8BBB1092300104C01BBA81E0809387
S11301D03001EF91AF919F918F917F916F915F91DA
S11301E04F913F912F910F900FBE0F901F90189534
S11301F01F920F920FB60F9211240BB60F920F930A
S11302001F932F933F934F935F936F937F938F939A
S11302109F93AF93BF93EF93FF93CF93DF93CDB7A8
S1130220DEB7C456D109DEBFCDBF809139018F5FDF
S113023080933901809139011F928F9386E091E078
S11302409F938F938E010F5F1F4F1F930F93A7D11F
S1130250B80180913A0190913B01CED00F900F905C
S11302600F900F900F900F90CC59DF4F0FB6F8946A
S1130270DEBF0FBECDBFDF91CF91FF91EF91BF9154
S1130280AF919F918F917F916F915F914F913F912A
S11302902F911F910F910F900BBE0F900FBE0F90D7
S11302A01F90189588EF81BB87E082BB9AEA9093F0
S11302B06A0089BF1ABE089512BE8FE183BF8FEF13
S11302C081BF83E087BF08958FEF8ABB8BBBEADFD2
S11302D0F3DF78940895CF93DF9300D01F92CDB7C6
S11302E0DEB7F2DF8E010F5F1F4FC80146D167E111
S11302F071E0C80181D010933B0100933A01FFCF14
S11303002FEF80E792E0215080409040E1F700C059
S1130310000081E00895FC0161834283442311F0CD
S113032082E001C080E0682B65BB81E00895CF9333
S1130330DF931F92CDB7DEB76983898183B981E0EA
S11303400F90DF91CF910895FC018FE99FE0019711
S1130350F1F700C0000081819281992311F092E0AD
S113036001C090E08460892B85BB8FE99FE00197F1
S1130370F1F700C0000081819281992311F092E08D
S113038001C090E0892B85BB8FE99FE00197F1F7CD
S113039000C0000081E008951F93CF93DF93EC0128
S11303A0162F40E061E0B7DF612FCE01C0DFCE0140
S11303B0CBDF81E0DF91CF911F910895CF93DF933D
S11303C0EC0140E060E0A7DF60ECCE01B0DFCE01DD
S11303D0BBDF81E0DF91CF910895CF93DF93EC01F0
S11303E040E060E098DF61E0CE01A1DFCE01ACDF48
S11303F081E0DF91CF910895BF92CF92DF92EF9287
S1130400FF920F931F93CF93DF937C01D62FC72FB7
S1130410E4DF0D2F1C2FC0E0D0E0D12CCC24C394FA
S11304206894BB24B2F8F80161918F0121966A3077
S113043039F06D3019F06623D9F009C0BBBA09C090
S1130440D11018C0C701BADF9E01DC2C0CC0C70153
S1130450A3DF9E01C031D10531F4D110E4CFC7012F
S1130460ADDFDC2CE0CF20323105E9F680E003C0BB
S113047081E001C080E0DF91CF911F910F91FF9047
S1130480EF90DF90CF90BF900895CF93DF93EC016E
S11304902FEF81EE94E0215080409040E1F700C0BE
S11304A000008FEF84BB82B940E060E0CE0133DF0F
S11304B060E3CE013CDFCE0147DF2FEF80E792E01F
S11304C0215080409040E1F700C0000040E060E02F
S11304D0CE0121DF60E3CE012ADFCE0135DF2FEF2D
S11304E080E792E0215080409040E1F700C0000096
S11304F040E060E0CE010FDF60E3CE0118DFCE0103
S113050023DF2FEF80E792E0215080409040E1F715
S113051000C0000040E060E0CE01FDDE68E3CE01F3
S113052006DFCE0111DF6DE0CE0101DFCE010CDF6D
S113053060E1CE01FCDECE0107DF61E0CE01F7DE33
S1130540CE0102DF66E0CE01F2DECE01FDDE2FEF4A
S113055080E792E0215080409040E1F700C0000025
S113056081E0DF91CF910895FC012081222311F0D5
S11305708CDF01C0C5DE81E0089521E0FC01208309
S113058011821282F1CF0024A7FD00942A0F301D9E
S1130590401D501D601D701D801D901D08950F93FA
S11305A01F93CF93DF93CDB7DEB72E970FB6F89492
S11305B0DEBF0FBECDBF0D891E8986E08C831A83F2
S11305C009838FEF9FE79E838D83CE014996AC010B
S11305D06F89788DCE01019610D0EF81F885E00FF8
S11305E0F11F10822E960FB6F894DEBF0FBECDBF5A
S11305F0DF91CF911F910F9108952F923F924F92C7
S11306005F926F927F928F929F92AF92BF92CF929E
S1130610DF92EF92FF920F931F93CF93DF93CDB7A7
S1130620DEB72C970FB6F894DEBF0FBECDBF7C01AA
S11306306B018A01FC0117821682838181FFB9C193
S113064088248394912C8C0E9D1EF7019381F601CE
S113065093FD859193FF81916F01882309F4A5C1CE
S1130660853239F493FD859193FF81916F01853231
S113067021F4B70190E0CFD1E8CF512C312C20E008
S11306802032A8F48B3261F028F4803251F08332A6
S113069071F40BC08D3239F0803349F4216028C0E5
S11306A02260246025C0286023C0206121C027FD6A
S11306B027C0382F30533A3078F426FF06C0FAE0CA
S11306C05F9E300D1124532E13C08AE0389E300DE6
S11306D01124332E20620CC08E3221F426FD65C114
S11306E0206406C08C3611F4206802C0883641F4B8
S11306F0F60193FD859193FF81916F018111C0CF24
S1130700982F9554933018F09052933028F40C5F3E
S11307101F4FFFE3F9830DC0833631F0833771F047
S1130720833509F05AC022C0F801808189830E5FA5
S11307301F4F44244394512C540114C03801F2E057
S11307406F0E711CF801A080B18026FF03C0652DD7
S113075070E002C06FEF7FEFC5012C8751D12C01EF
S113076083012C856FE7262E222217C03801F2E080
S11307706F0E711CF801A080B18026FF03C0652DA7
S113078070E002C06FEF7FEFC5012C872ED12C01E2
S11307902C8550E8252E222A830123FC1AC005C08B
S11307A0B70180E290E037D13A94832D90E0481667
S11307B05906B0F30EC0F50127FC859127FE8191FF
S11307C05F01B70190E027D131103A94F1E04F1A5C
S11307D051084114510479F7E5C0843611F0893683
S11307E039F5F80127FF07C0608171818281938107
S11307F00C5F1F4F08C060817181882777FD809549
S1130800982F0E5F1F4F4FE6B42EB22297FF09C0F8
S113081090958095709561957F4F8F4F9F4FF0E82D
S1130820BF2A2AE030E0A40122D1A82EA81842C091
S1130830853731F43FEEB32EB2222AE030E024C0F3
S113084099EFB92EB2228F36B9F020F4883509F029
S1130850ACC00DC0803721F0883709F0A6C002C0B3
S113086020E1B22AB4FE0BC084E0B82A08C024FFF9
S113087009C0E6E0BE2A06C028E030E005C020E159
S113088030E002C020E132E0F801B7FE07C0608129
S11308907181828193810C5F1F4F06C060817181D9
S11308A080E090E00E5F1F4FA401E1D0A82EA818AD
S11308B0FFE7BF22B6FE0BC02B2D2E7FA51450F4EC
S11308C0B4FE0AC0B2FC08C02B2D2E7E05C07A2CC3
S11308D02B2D03C07A2C01C0752C24FF0DC0FE0102
S11308E0EA0DF11D8081803311F4297E09C022FFB5
S11308F006C07394739404C0822F867809F07394AD
S113090023FD13C020FF0EC05A2C731458F4530C4B
S11309105718732C07C0B70180E290E02C877BD076
S113092073942C857314B8F304C0731410F437183B
S113093001C0312C24FF11C0B70180E390E02C8763
S11309406AD02C8522FF1CC021FF03C088E590E0FB
S113095002C088E790E0B7010CC0822F867881F04E
S113096021FD02C080E201C08BE227FD8DE2B701C8
S113097090E051D005C0B70180E390E04CD05A9488
S1130980A514C8F3AA94F401EA0DF11DB7018081FE
S113099090E041D0A110F6CF05C0B70180E290E00D
S11309A03AD03A943110F9CF50CEF70126813781ED
S11309B002C02FEF3FEFC9012C960FB6F894DEBFAB
S11309C00FBECDBFDF91CF911F910F91FF90EF909C
S11309D0DF90CF90BF90AF909F908F907F906F905B
S11309E05F904F903F902F900895FC0105906150C7
S11309F070400110D8F7809590958E0F9F1F089531
S1130A00FC016150704001900110D8F780959095D9
S1130A108E0F9F1F08950F931F93CF93DF938C0125
S1130A20EB018B8181FD03C00FEF1FEF1AC082FF22
S1130A300DC02E813F818C819D812817390764F474
S1130A40E881F9810193F983E88306C0E885F98593
S1130A50802F0995892B41F78E819F8101969F8371
S1130A608E83C801DF91CF911F910F910895FA01F0
S1130A70AA27283051F1203181F1E8946F936E7FD9
S1130A806E5F7F4F8F4F9F4FAF4FB1E03ED0B4E0CA
S1130A903CD0670F781F891F9A1FA11D680F791F0B
S1130AA08A1F911DA11D6A0F711D811D911DA11D1C
S1130AB020D009F468943F912AE0269F112430192C
S1130AC0305D3193DEF6CF010895462F4770405DC7
S1130AD04193B3E00FD0C9F7F6CF462F4F70405D76
S1130AE04A3318F0495D31FD4052419302D0A9F7D1
S1130AF0EACFB4E0A6959795879577956795BA95CB
S1130B00C9F700976105710508959B01AC010A2E90
S1130B1006945795479537952795BA95C9F7620F67
S1110B20731F841F951FA01D0895F894FFCF26
S1130B2E696E69743100636F756E74657220256425
S1130B3E20696E7075740048656C6C6F20576F7207
S1130B4E6C64206D7920667269656E643F3F0000A7
S9030000FC
