:1000000045C0000060C000005EC000005CC0000091
:100010005AC0000058C0000056C0000054C0000084
:1000200052C0000050C000004EC000004CC0000094
:100030004AC0000048C0000046C0000044C00000A4
:1000400042C0000040C000003EC000003CC00000B4
:100050003AC0000038C0000036C0000034C00000C4
:1000600032C0000030C000002EC000002CC00000D4
:100070002AC0000028C0000026C0000024C00000E4
:1000800022C0000020C000001EC0000011241FBEBE
:10009000CFEFD0E1DEBFCDBF21E0A6E0B1E001C0EF
:1000A0001D92AC30B207E1F711E0A0E0B1E0E8EF5B
:1000B000F3E000E00BBF02C007900D92A630B1073D
:1000C000D9F732D097C19CCFFC01128211821082E5
:1000D0008FEF82B913B881E00895F6CF08958FE3CA
:1000E0009CE90197F1F700C00000862F806883B972
:1000F0008FE39CE90197F1F700C0000063B9089510
:10010000FC014081F0E24F9FA0011124FC012181FC
:10011000F0E42F9F90011124242B62956F70622BC5
:1001200063B9DDDF81E008958FEF8ABB80EF8BBB81
:1001300098E79BBB9CE39BBB9EE19BBB9FE09BBB6B
:1001400097E09BBB9BE09BBB8BBB80910601909192
:100150000701892B51F483E090E012D0D82FC92FEA
:10016000BCDFD0930601C0930701809106019091F6
:10017000070121E0FC01208321836CEAC1DFFFCF6E
:100180000F931F93CF93DF938230910510F482E099
:1001900090E0E0910A01F0910B0120E030E0C0E036
:1001A000D0E023C04081518148175907A8F0481773
:1001B000590761F482819381209719F09B838A8388
:1001C0002EC090930B0180930A0129C0211531059F
:1001D00029F04217530710F0A90102C0BE01DF0148
:1001E00002811381EF019A01F8013097D9F62115A8
:1001F000310509F1281B390B2430310590F4129692
:100200008D919C9113976115710521F0FB019383EA
:10021000828304C090930B0180930A01FD01329602
:1002200044C0FD01E20FF31F8193919322503109E5
:100230002D933C933AC02091080130910901232B62
:1002400041F4209102013091030130930901209380
:10025000080120910001309101012115310541F47F
:100260002DB73EB74091040150910501241B350B79
:10027000E0910801F0910901E217F307A0F42E1BA9
:100280003F0B2817390778F0AC014E5F5F4F2417FA
:10029000350748F04E0F5F1F509309014093080146
:1002A0008193919302C0E0E0F0E0CF01DF91CF9124
:1002B0001F910F910895EF92FF920F931F93CF9389
:1002C000DF93009709F48FC0DC01129713961C92FC
:1002D0001E921297E0900A01F0900B01E114F104D4
:1002E00089F42D913C911197280F391F80910801B5
:1002F000909109018217930789F5B0930901A093A2
:10030000080171C0E70120E030E001C0EA01CA172E
:10031000DB0738F44A815B819E0141155105B1F735
:1003200022C0BC0162507109FB01D383C2830081EA
:100330001181AC01400F511F4C175D0761F44881DA
:100340005981400F511F4E5F5F4F518340834A8157
:100350005B81538342832115310529F4B0930B014E
:10036000A0930A0140C0F901B383A283E901699116
:100370007991C60FD71FAC17BD0779F4DC015E91E8
:100380004E91460F571F4E5F5F4F51834083129629
:100390008D919C91139793838283A0E0B0E002C07B
:1003A000D7017C01F701828193810097C9F7C701CA
:1003B000029620813181820F931F20910801309194
:1003C00009012817390779F4109729F410920B01C5
:1003D00010920A0104C013961C921E921297F0927A
:1003E0000901E0920801DF91CF911F910F91FF90D9
:0803F000EF900895F894FFCF8F
:0603F80000000C012000D2
:00000001FF
